{
    "contractName": "Dappazon",
    "abi": [
        {
            "inputs": [],
            "stateMutability": "nonpayable",
            "type": "constructor"
        },
        {
            "anonymous": false,
            "inputs": [
                {
                    "indexed": false,
                    "internalType": "address",
                    "name": "buyer",
                    "type": "address"
                },
                {
                    "indexed": false,
                    "internalType": "uint256",
                    "name": "orderId",
                    "type": "uint256"
                },
                {
                    "indexed": false,
                    "internalType": "uint256",
                    "name": "itemId",
                    "type": "uint256"
                }
            ],
            "name": "Buy",
            "type": "event"
        },
        {
            "anonymous": false,
            "inputs": [
                {
                    "indexed": false,
                    "internalType": "string",
                    "name": "name",
                    "type": "string"
                },
                {
                    "indexed": false,
                    "internalType": "uint256",
                    "name": "cost",
                    "type": "uint256"
                },
                {
                    "indexed": false,
                    "internalType": "uint256",
                    "name": "quantity",
                    "type": "uint256"
                }
            ],
            "name": "List",
            "type": "event"
        },
        {
            "inputs": [
                {
                    "internalType": "uint256",
                    "name": "_id",
                    "type": "uint256"
                }
            ],
            "name": "buy",
            "outputs": [],
            "stateMutability": "payable",
            "type": "function"
        },
        {
            "inputs": [
                {
                    "internalType": "uint256",
                    "name": "",
                    "type": "uint256"
                }
            ],
            "name": "items",
            "outputs": [
                {
                    "internalType": "uint256",
                    "name": "id",
                    "type": "uint256"
                },
                {
                    "internalType": "string",
                    "name": "name",
                    "type": "string"
                },
                {
                    "internalType": "string",
                    "name": "category",
                    "type": "string"
                },
                {
                    "internalType": "string",
                    "name": "image",
                    "type": "string"
                },
                {
                    "internalType": "uint256",
                    "name": "cost",
                    "type": "uint256"
                },
                {
                    "internalType": "uint256",
                    "name": "rating",
                    "type": "uint256"
                },
                {
                    "internalType": "uint256",
                    "name": "stock",
                    "type": "uint256"
                }
            ],
            "stateMutability": "view",
            "type": "function"
        },
        {
            "inputs": [
                {
                    "internalType": "uint256",
                    "name": "_id",
                    "type": "uint256"
                },
                {
                    "internalType": "string",
                    "name": "_name",
                    "type": "string"
                },
                {
                    "internalType": "string",
                    "name": "_category",
                    "type": "string"
                },
                {
                    "internalType": "string",
                    "name": "_image",
                    "type": "string"
                },
                {
                    "internalType": "uint256",
                    "name": "_cost",
                    "type": "uint256"
                },
                {
                    "internalType": "uint256",
                    "name": "_rating",
                    "type": "uint256"
                },
                {
                    "internalType": "uint256",
                    "name": "_stock",
                    "type": "uint256"
                }
            ],
            "name": "list",
            "outputs": [],
            "stateMutability": "nonpayable",
            "type": "function"
        },
        {
            "inputs": [
                {
                    "internalType": "address",
                    "name": "",
                    "type": "address"
                }
            ],
            "name": "orderCount",
            "outputs": [
                {
                    "internalType": "uint256",
                    "name": "",
                    "type": "uint256"
                }
            ],
            "stateMutability": "view",
            "type": "function"
        },
        {
            "inputs": [
                {
                    "internalType": "address",
                    "name": "",
                    "type": "address"
                },
                {
                    "internalType": "uint256",
                    "name": "",
                    "type": "uint256"
                }
            ],
            "name": "orders",
            "outputs": [
                {
                    "internalType": "uint256",
                    "name": "time",
                    "type": "uint256"
                },
                {
                    "components": [
                        {
                            "internalType": "uint256",
                            "name": "id",
                            "type": "uint256"
                        },
                        {
                            "internalType": "string",
                            "name": "name",
                            "type": "string"
                        },
                        {
                            "internalType": "string",
                            "name": "category",
                            "type": "string"
                        },
                        {
                            "internalType": "string",
                            "name": "image",
                            "type": "string"
                        },
                        {
                            "internalType": "uint256",
                            "name": "cost",
                            "type": "uint256"
                        },
                        {
                            "internalType": "uint256",
                            "name": "rating",
                            "type": "uint256"
                        },
                        {
                            "internalType": "uint256",
                            "name": "stock",
                            "type": "uint256"
                        }
                    ],
                    "internalType": "struct Dappazon.Item",
                    "name": "item",
                    "type": "tuple"
                }
            ],
            "stateMutability": "view",
            "type": "function"
        },
        {
            "inputs": [],
            "name": "owner",
            "outputs": [
                {
                    "internalType": "address",
                    "name": "",
                    "type": "address"
                }
            ],
            "stateMutability": "view",
            "type": "function"
        },
        {
            "inputs": [],
            "name": "withdraw",
            "outputs": [],
            "stateMutability": "nonpayable",
            "type": "function"
        }
    ],
    "bytecode": "608060405234801561001057600080fd5b50600080546001600160a01b03191633179055610f55806100326000396000f3fe6080604052600436106100705760003560e01c80638da5cb5b1161004e5780638da5cb5b146100fa578063bfb231d214610132578063d96a094a14610165578063eea8a7e81461017857600080fd5b80633ccfd60b14610075578063713d856b1461008c578063793b8c6d146100cc575b600080fd5b34801561008157600080fd5b5061008a610198565b005b34801561009857600080fd5b506100b96100a7366004610a79565b60036020526000908152604090205481565b6040519081526020015b60405180910390f35b3480156100d857600080fd5b506100ec6100e7366004610a9b565b610212565b6040516100c3929190610b0b565b34801561010657600080fd5b5060005461011a906001600160a01b031681565b6040516001600160a01b0390911681526020016100c3565b34801561013e57600080fd5b5061015261014d366004610ba1565b61042b565b6040516100c39796959493929190610bba565b61008a610173366004610ba1565b6105fd565b34801561018457600080fd5b5061008a610193366004610cbc565b610956565b6000546001600160a01b031633146101af57600080fd5b600080546040516001600160a01b039091169047908381818185875af1925050503d80600081146101fc576040519150601f19603f3d011682016040523d82523d6000602084013e610201565b606091505b505090508061020f57600080fd5b50565b600260205281600052604060002060205280600052604060002060009150915050806000015490806001016040518060e00160405290816000820154815260200160018201805461026290610d69565b80601f016020809104026020016040519081016040528092919081815260200182805461028e90610d69565b80156102db5780601f106102b0576101008083540402835291602001916102db565b820191906000526020600020905b8154815290600101906020018083116102be57829003601f168201915b505050505081526020016002820180546102f490610d69565b80601f016020809104026020016040519081016040528092919081815260200182805461032090610d69565b801561036d5780601f106103425761010080835404028352916020019161036d565b820191906000526020600020905b81548152906001019060200180831161035057829003601f168201915b5050505050815260200160038201805461038690610d69565b80601f01602080910402602001604051908101604052809291908181526020018280546103b290610d69565b80156103ff5780601f106103d4576101008083540402835291602001916103ff565b820191906000526020600020905b8154815290600101906020018083116103e257829003601f168201915b505050505081526020016004820154815260200160058201548152602001600682015481525050905082565b60016020819052600091825260409091208054918101805461044c90610d69565b80601f016020809104026020016040519081016040528092919081815260200182805461047890610d69565b80156104c55780601f1061049a576101008083540402835291602001916104c5565b820191906000526020600020905b8154815290600101906020018083116104a857829003601f168201915b5050505050908060020180546104da90610d69565b80601f016020809104026020016040519081016040528092919081815260200182805461050690610d69565b80156105535780601f1061052857610100808354040283529160200191610553565b820191906000526020600020905b81548152906001019060200180831161053657829003601f168201915b50505050509080600301805461056890610d69565b80601f016020809104026020016040519081016040528092919081815260200182805461059490610d69565b80156105e15780601f106105b6576101008083540402835291602001916105e1565b820191906000526020600020905b8154815290600101906020018083116105c457829003601f168201915b5050505050908060040154908060050154908060060154905087565b6000818152600160208181526040808420815160e0810190925280548252928301805491939284019161062f90610d69565b80601f016020809104026020016040519081016040528092919081815260200182805461065b90610d69565b80156106a85780601f1061067d576101008083540402835291602001916106a8565b820191906000526020600020905b81548152906001019060200180831161068b57829003601f168201915b505050505081526020016002820180546106c190610d69565b80601f01602080910402602001604051908101604052809291908181526020018280546106ed90610d69565b801561073a5780601f1061070f5761010080835404028352916020019161073a565b820191906000526020600020905b81548152906001019060200180831161071d57829003601f168201915b5050505050815260200160038201805461075390610d69565b80601f016020809104026020016040519081016040528092919081815260200182805461077f90610d69565b80156107cc5780601f106107a1576101008083540402835291602001916107cc565b820191906000526020600020905b8154815290600101906020018083116107af57829003601f168201915b5050505050815260200160048201548152602001600582015481526020016006820154815250509050806080015134101561080657600080fd5b60008160c001511161081757600080fd5b604080518082018252428152602080820184905233600090815260039091529182208054919261084683610db9565b9091555050336000908152600260208181526040808420600383528185205485528252909220835181558284015180516001830190815593810151859492939192918401906108959082610e21565b50604082015160028201906108aa9082610e21565b50606082015160038201906108bf9082610e21565b506080820151600482015560a0820151600582015560c0918201516006909101558401516108f1925060019150610ee1565b6000848152600160209081526040808320600601939093553380835260038252918390205485518451938452918301528183015290517f1cbc5ab135991bd2b6a4b034a04aa2aa086dac1371cb9b16b8b5e2ed6b036bed9181900360600190a1505050565b6000546001600160a01b0316331461096d57600080fd5b6040805160e0810182528881526020808201898152828401899052606083018890526080830187905260a0830186905260c0830185905260008b8152600192839052939093208251815592519192839290918201906109cc9082610e21565b50604082015160028201906109e19082610e21565b50606082015160038201906109f69082610e21565b506080820151816004015560a0820151816005015560c082015181600601559050507ffdbe2a012c10ec01592653978eaa09b5ca60b143a0e617505b2ebcbd911ec5b8878584604051610a4b93929190610efa565b60405180910390a15050505050505050565b80356001600160a01b0381168114610a7457600080fd5b919050565b600060208284031215610a8b57600080fd5b610a9482610a5d565b9392505050565b60008060408385031215610aae57600080fd5b610ab783610a5d565b946020939093013593505050565b6000815180845260005b81811015610aeb57602081850181015186830182015201610acf565b506000602082860101526020601f19601f83011685010191505092915050565b82815260406020820152815160408201526000602083015160e06060840152610b38610120840182610ac5565b90506040840151603f1980858403016080860152610b568383610ac5565b925060608601519150808584030160a086015250610b748282610ac5565b915050608084015160c084015260a084015160e084015260c0840151610100840152809150509392505050565b600060208284031215610bb357600080fd5b5035919050565b87815260e060208201526000610bd360e0830189610ac5565b8281036040840152610be58189610ac5565b90508281036060840152610bf98188610ac5565b6080840196909652505060a081019290925260c090910152949350505050565b634e487b7160e01b600052604160045260246000fd5b600082601f830112610c4057600080fd5b813567ffffffffffffffff80821115610c5b57610c5b610c19565b604051601f8301601f19908116603f01168101908282118183101715610c8357610c83610c19565b81604052838152866020858801011115610c9c57600080fd5b836020870160208301376000602085830101528094505050505092915050565b600080600080600080600060e0888a031215610cd757600080fd5b87359650602088013567ffffffffffffffff80821115610cf657600080fd5b610d028b838c01610c2f565b975060408a0135915080821115610d1857600080fd5b610d248b838c01610c2f565b965060608a0135915080821115610d3a57600080fd5b50610d478a828b01610c2f565b979a969950949760808101359660a0820135965060c090910135945092505050565b600181811c90821680610d7d57607f821691505b602082108103610d9d57634e487b7160e01b600052602260045260246000fd5b50919050565b634e487b7160e01b600052601160045260246000fd5b600060018201610dcb57610dcb610da3565b5060010190565b601f821115610e1c57600081815260208120601f850160051c81016020861015610df95750805b601f850160051c820191505b81811015610e1857828155600101610e05565b5050505b505050565b815167ffffffffffffffff811115610e3b57610e3b610c19565b610e4f81610e498454610d69565b84610dd2565b602080601f831160018114610e845760008415610e6c5750858301515b600019600386901b1c1916600185901b178555610e18565b600085815260208120601f198616915b82811015610eb357888601518255948401946001909101908401610e94565b5085821015610ed15787850151600019600388901b60f8161c191681555b5050505050600190811b01905550565b81810381811115610ef457610ef4610da3565b92915050565b606081526000610f0d6060830186610ac5565b6020830194909452506040015291905056fea26469706673582212208063f6ce162984cfe7596e6137830fb259541b872536c43d323c09da8ae5510b64736f6c63430008130033",
    "sourcePath": "c:/Users/Squasr/Documents/FileBlock/contracts/Dappazon.sol",
    "compiler": {
        "name": "solc",
        "version": "0.8.19+commit.7dd6d404"
    },
    "functionHashes": {
        "buy(uint256)": "d96a094a",
        "items(uint256)": "bfb231d2",
        "list(uint256,string,string,string,uint256,uint256,uint256)": "eea8a7e8",
        "orderCount(address)": "713d856b",
        "orders(address,uint256)": "793b8c6d",
        "owner()": "8da5cb5b",
        "withdraw()": "3ccfd60b"
    },
    "gasEstimates": {
        "creation": {
            "codeDepositCost": "785000",
            "executionCost": "25053",
            "totalCost": "810053"
        },
        "external": {
            "buy(uint256)": "infinite",
            "items(uint256)": "infinite",
            "list(uint256,string,string,string,uint256,uint256,uint256)": "infinite",
            "orderCount(address)": "2531",
            "orders(address,uint256)": "infinite",
            "owner()": "2337",
            "withdraw()": "infinite"
        }
    }
}